{
  "contractName": "Bytes32",
  "abi": [
    {
      "inputs": [
        {
          "internalType": "string",
          "name": "source",
          "type": "string"
        }
      ],
      "name": "_stringToBytes32",
      "outputs": [
        {
          "internalType": "bytes32",
          "name": "result",
          "type": "bytes32"
        }
      ],
      "stateMutability": "pure",
      "type": "function"
    }
  ],
  "bytecode": "0x608060405234801561001057600080fd5b50610297806100206000396000f3fe608060405234801561001057600080fd5b506004361061002b5760003560e01c8063bf6a8f9c14610030575b600080fd5b61004a600480360381019061004591906101e4565b610060565b6040516100579190610246565b60405180910390f35b60008082905060008151141561007c576000801b915050610085565b60208301519150505b919050565b6000604051905090565b600080fd5b600080fd5b600080fd5b600080fd5b6000601f19601f8301169050919050565b7f4e487b7100000000000000000000000000000000000000000000000000000000600052604160045260246000fd5b6100f1826100a8565b810181811067ffffffffffffffff821117156101105761010f6100b9565b5b80604052505050565b600061012361008a565b905061012f82826100e8565b919050565b600067ffffffffffffffff82111561014f5761014e6100b9565b5b610158826100a8565b9050602081019050919050565b82818337600083830152505050565b600061018761018284610134565b610119565b9050828152602081018484840111156101a3576101a26100a3565b5b6101ae848285610165565b509392505050565b600082601f8301126101cb576101ca61009e565b5b81356101db848260208601610174565b91505092915050565b6000602082840312156101fa576101f9610094565b5b600082013567ffffffffffffffff81111561021857610217610099565b5b610224848285016101b6565b91505092915050565b6000819050919050565b6102408161022d565b82525050565b600060208201905061025b6000830184610237565b9291505056fea2646970667358221220e5964d4ea62a5dcc73a0d6a2ca3c9e60de4e91139ac0c4b095a47b437228643564736f6c634300080a0033",
  "immutableReferences": {},
  "source": "pragma solidity ^0.8.0;\r\n\r\ncontract Bytes32{\r\n    function _stringToBytes32(string memory source) public pure returns (bytes32 result) {\r\n    bytes memory tempEmptyStringTest = bytes(source);\r\n    if (tempEmptyStringTest.length == 0) {\r\n        return 0x0;\r\n    }\r\n\r\n    assembly {\r\n        result := mload(add(source, 32))\r\n    }\r\n}\r\n}",
  "sourcePath": "C:\\Users\\oteri\\Documents\\chess\\contracts\\Bytes32.sol",
  "compiler": {
    "name": "solc",
    "version": "0.8.10+commit.fc410830.Emscripten.clang"
  },
  "schemaVersion": "3.4.3",
  "updatedAt": "2022-08-12T18:50:41.323Z",
  "devdoc": {
    "kind": "dev",
    "methods": {},
    "version": 1
  },
  "userdoc": {
    "kind": "user",
    "methods": {},
    "version": 1
  }
}