{
  "contractName": "ChessGameCreator",
  "abi": [
    {
      "inputs": [
        {
          "internalType": "string",
          "name": "source",
          "type": "string"
        }
      ],
      "name": "_stringToBytes32",
      "outputs": [
        {
          "internalType": "bytes32",
          "name": "result",
          "type": "bytes32"
        }
      ],
      "stateMutability": "pure",
      "type": "function",
      "constant": true
    },
    {
      "inputs": [
        {
          "internalType": "string",
          "name": "gameName",
          "type": "string"
        },
        {
          "internalType": "address",
          "name": "player1",
          "type": "address"
        },
        {
          "internalType": "address",
          "name": "player2",
          "type": "address"
        },
        {
          "internalType": "uint256",
          "name": "betAmount",
          "type": "uint256"
        }
      ],
      "name": "createPrivateGame",
      "outputs": [],
      "stateMutability": "nonpayable",
      "type": "function"
    },
    {
      "inputs": [
        {
          "internalType": "string",
          "name": "gameName",
          "type": "string"
        }
      ],
      "name": "getGameCode",
      "outputs": [
        {
          "internalType": "bytes32",
          "name": "",
          "type": "bytes32"
        }
      ],
      "stateMutability": "pure",
      "type": "function",
      "constant": true
    },
    {
      "inputs": [],
      "name": "lobbies",
      "outputs": [
        {
          "components": [
            {
              "internalType": "bytes32",
              "name": "game_code",
              "type": "bytes32"
            },
            {
              "internalType": "uint256",
              "name": "gameId",
              "type": "uint256"
            },
            {
              "internalType": "address",
              "name": "gameAddress",
              "type": "address"
            },
            {
              "internalType": "address",
              "name": "creator",
              "type": "address"
            }
          ],
          "internalType": "struct ChessGameCreator.Lobby[]",
          "name": "",
          "type": "tuple[]"
        }
      ],
      "stateMutability": "view",
      "type": "function",
      "constant": true
    }
  ],
  "bytecode": "0x608060405234801561001057600080fd5b50614a7e806100206000396000f3fe60806040523480156200001157600080fd5b5060043610620000525760003560e01c80630364f88c1462000057578063336cf8fa14620000795780633f2d21cb14620000af578063bf6a8f9c14620000cf575b600080fd5b6200006162000105565b604051620000709190620007aa565b60405180910390f35b62000097600480360381019062000091919062000944565b6200028e565b604051620000a69190620009a6565b60405180910390f35b620000cd6004803603810190620000c7919062000a25565b620002a7565b005b620000ed6004803603810190620000e7919062000944565b620004f6565b604051620000fc9190620009a6565b60405180910390f35b6060600060058054905067ffffffffffffffff8111156200012b576200012a620007fd565b5b6040519080825280602002602001820160405280156200016857816020015b62000154620005b0565b8152602001906001900390816200014a5790505b5090506005805480602002602001604051908101604052809291908181526020016000905b8282101562000281578382906000526020600020906004020160405180608001604052908160008201548152602001600182015481526020016002820160009054906101000a900473ffffffffffffffffffffffffffffffffffffffff1673ffffffffffffffffffffffffffffffffffffffff1673ffffffffffffffffffffffffffffffffffffffff1681526020016003820160009054906101000a900473ffffffffffffffffffffffffffffffffffffffff1673ffffffffffffffffffffffffffffffffffffffff1673ffffffffffffffffffffffffffffffffffffffff1681525050815260200190600101906200018d565b5050505090508091505090565b6000806200029c83620004f6565b905080915050919050565b600073ffffffffffffffffffffffffffffffffffffffff168373ffffffffffffffffffffffffffffffffffffffff1614158015620003125750600073ffffffffffffffffffffffffffffffffffffffff168273ffffffffffffffffffffffffffffffffffffffff1614155b6200031c57600080fd5b620003278462000522565b156200036a576040517f08c379a0000000000000000000000000000000000000000000000000000000008152600401620003619062000b17565b60405180910390fd5b6000620003786003620005a2565b848484604051620003899062000607565b62000398949392919062000b5b565b604051809103906000f080158015620003b5573d6000803e3d6000fd5b5090506000620003c586620004f6565b905060056040518060800160405280838152602001620003e66003620005a2565b81526020018473ffffffffffffffffffffffffffffffffffffffff1681526020013373ffffffffffffffffffffffffffffffffffffffff168152509080600181540180825580915050600190039060005260206000209060040201600090919091909150600082015181600001556020820151816001015560408201518160020160006101000a81548173ffffffffffffffffffffffffffffffffffffffff021916908373ffffffffffffffffffffffffffffffffffffffff16021790555060608201518160030160006101000a81548173ffffffffffffffffffffffffffffffffffffffff021916908373ffffffffffffffffffffffffffffffffffffffff1602179055505050505050505050565b60008082905060008151141562000514576000801b9150506200051d565b60208301519150505b919050565b6000806200053083620004f6565b905060005b600580549050811015620005965781600582815481106200055b576200055a62000ba8565b5b906000526020600020906004020160000154141562000580576001925050506200059d565b80806200058d9062000c06565b91505062000535565b5060009150505b919050565b600081600001549050919050565b60405180608001604052806000801916815260200160008152602001600073ffffffffffffffffffffffffffffffffffffffff168152602001600073ffffffffffffffffffffffffffffffffffffffff1681525090565b613df48062000c5583390190565b600081519050919050565b600082825260208201905092915050565b6000819050602082019050919050565b6000819050919050565b620006568162000641565b82525050565b6000819050919050565b62000671816200065c565b82525050565b600073ffffffffffffffffffffffffffffffffffffffff82169050919050565b6000620006a48262000677565b9050919050565b620006b68162000697565b82525050565b608082016000820151620006d460008501826200064b565b506020820151620006e9602085018262000666565b506040820151620006fe6040850182620006ab565b506060820151620007136060850182620006ab565b50505050565b6000620007278383620006bc565b60808301905092915050565b6000602082019050919050565b60006200074d8262000615565b62000759818562000620565b9350620007668362000631565b8060005b838110156200079d57815162000781888262000719565b97506200078e8362000733565b9250506001810190506200076a565b5085935050505092915050565b60006020820190508181036000830152620007c6818462000740565b905092915050565b6000604051905090565b600080fd5b600080fd5b600080fd5b600080fd5b6000601f19601f8301169050919050565b7f4e487b7100000000000000000000000000000000000000000000000000000000600052604160045260246000fd5b6200083782620007ec565b810181811067ffffffffffffffff82111715620008595762000858620007fd565b5b80604052505050565b60006200086e620007ce565b90506200087c82826200082c565b919050565b600067ffffffffffffffff8211156200089f576200089e620007fd565b5b620008aa82620007ec565b9050602081019050919050565b82818337600083830152505050565b6000620008dd620008d78462000881565b62000862565b905082815260208101848484011115620008fc57620008fb620007e7565b5b62000909848285620008b7565b509392505050565b600082601f830112620009295762000928620007e2565b5b81356200093b848260208601620008c6565b91505092915050565b6000602082840312156200095d576200095c620007d8565b5b600082013567ffffffffffffffff8111156200097e576200097d620007dd565b5b6200098c8482850162000911565b91505092915050565b620009a08162000641565b82525050565b6000602082019050620009bd600083018462000995565b92915050565b620009ce8162000697565b8114620009da57600080fd5b50565b600081359050620009ee81620009c3565b92915050565b620009ff816200065c565b811462000a0b57600080fd5b50565b60008135905062000a1f81620009f4565b92915050565b6000806000806080858703121562000a425762000a41620007d8565b5b600085013567ffffffffffffffff81111562000a635762000a62620007dd565b5b62000a718782880162000911565b945050602062000a8487828801620009dd565b935050604062000a9787828801620009dd565b925050606062000aaa8782880162000a0e565b91505092959194509250565b600082825260208201905092915050565b7f54686174206e616d6520697320616c72656164792074616b656e000000000000600082015250565b600062000aff601a8362000ab6565b915062000b0c8262000ac7565b602082019050919050565b6000602082019050818103600083015262000b328162000af0565b9050919050565b62000b44816200065c565b82525050565b62000b558162000697565b82525050565b600060808201905062000b72600083018762000b39565b62000b81602083018662000b4a565b62000b90604083018562000b4a565b62000b9f606083018462000b39565b95945050505050565b7f4e487b7100000000000000000000000000000000000000000000000000000000600052603260045260246000fd5b7f4e487b7100000000000000000000000000000000000000000000000000000000600052601160045260246000fd5b600062000c13826200065c565b91507fffffffffffffffffffffffffffffffffffffffffffffffffffffffffffffffff82141562000c495762000c4862000bd7565b5b60018201905091905056fe60806040526001600a60016101000a81548160ff021916908360ff1602179055506002600a60026101000a81548160ff021916908360ff1602179055506003600a60036101000a81548160ff021916908360ff1602179055506004600a60046101000a81548160ff021916908360ff1602179055506005600a60056101000a81548160ff021916908360ff1602179055506006600a60066101000a81548160ff021916908360ff160217905550348015620000b957600080fd5b5060405162003df438038062003df48339818101604052810190620000df91906200031a565b600073ffffffffffffffffffffffffffffffffffffffff168373ffffffffffffffffffffffffffffffffffffffff16141580156200014a5750600073ffffffffffffffffffffffffffffffffffffffff168273ffffffffffffffffffffffffffffffffffffffff1614155b6200015457600080fd5b8360078190555082600360016101000a81548173ffffffffffffffffffffffffffffffffffffffff021916908373ffffffffffffffffffffffffffffffffffffffff16021790555081600460006101000a81548173ffffffffffffffffffffffffffffffffffffffff021916908373ffffffffffffffffffffffffffffffffffffffff160217905550806006819055506000600a60006101000a81548160ff021916908360028111156200020d576200020c6200038c565b5b02179055506200023c61070842620002269190620003ea565b60006200024660201b6200133e1790919060201c565b5050505062000447565b808260000160006101000a81548167ffffffffffffffff021916908367ffffffffffffffff1602179055505050565b600080fd5b6000819050919050565b6200028f816200027a565b81146200029b57600080fd5b50565b600081519050620002af8162000284565b92915050565b600073ffffffffffffffffffffffffffffffffffffffff82169050919050565b6000620002e282620002b5565b9050919050565b620002f481620002d5565b81146200030057600080fd5b50565b6000815190506200031481620002e9565b92915050565b6000806000806080858703121562000337576200033662000275565b5b600062000347878288016200029e565b94505060206200035a8782880162000303565b93505060406200036d8782880162000303565b925050606062000380878288016200029e565b91505092959194509250565b7f4e487b7100000000000000000000000000000000000000000000000000000000600052602160045260246000fd5b7f4e487b7100000000000000000000000000000000000000000000000000000000600052601160045260246000fd5b6000620003f7826200027a565b915062000404836200027a565b9250827fffffffffffffffffffffffffffffffffffffffffffffffffffffffffffffffff038211156200043c576200043b620003bb565b5b828201905092915050565b61399d80620004576000396000f3fe60806040526004361061011f5760003560e01c8063776986ea116100a0578063c75cf19a11610064578063c75cf19a14610372578063d30895e41461039d578063d7c81b55146103c8578063dfbf53ae146103f3578063e864e29b1461041e5761011f565b8063776986ea146102be578063941c5cfc146102e9578063ae1a03a614610314578063b67f52c61461033d578063b688a363146103685761011f565b8063601b5a64116100e7578063601b5a64146101fb57806364ca7f50146102265780636defbf80146102515780636f36fb3714610268578063722fed7e146102935761011f565b806311610c2514610124578063128d381a1461014f57806328412d701461017a578063417267d0146101a557806359a5f12d146101d0575b600080fd5b34801561013057600080fd5b50610139610435565b60405161014691906131af565b60405180910390f35b34801561015b57600080fd5b5061016461043b565b60405161017191906132c4565b60405180910390f35b34801561018657600080fd5b5061018f61058c565b60405161019c91906132f5565b60405180910390f35b3480156101b157600080fd5b506101ba61059f565b6040516101c791906132f5565b60405180910390f35b3480156101dc57600080fd5b506101e56105b2565b6040516101f29190613351565b60405180910390f35b34801561020757600080fd5b506102106105d8565b60405161021d9190613387565b60405180910390f35b34801561023257600080fd5b5061023b6105eb565b60405161024891906132f5565b60405180910390f35b34801561025d57600080fd5b506102666105fe565b005b34801561027457600080fd5b5061027d610824565b60405161028a91906133c5565b60405180910390f35b34801561029f57600080fd5b506102a861087d565b6040516102b59190613457565b60405180910390f35b3480156102ca57600080fd5b506102d3610929565b6040516102e091906132f5565b60405180910390f35b3480156102f557600080fd5b506102fe61093c565b60405161030b91906132f5565b60405180910390f35b34801561032057600080fd5b5061033b600480360381019061033691906134dc565b61094f565b005b34801561034957600080fd5b50610352610e50565b60405161035f91906132f5565b60405180910390f35b610370610e63565b005b34801561037e57600080fd5b50610387611042565b60405161039491906131af565b60405180910390f35b3480156103a957600080fd5b506103b2611048565b6040516103bf9190613351565b60405180910390f35b3480156103d457600080fd5b506103dd61106e565b6040516103ea91906131af565b60405180910390f35b3480156103ff57600080fd5b50610408611074565b6040516104159190613351565b60405180910390f35b34801561042a57600080fd5b5061043361109a565b005b60065481565b60606000604067ffffffffffffffff81111561045a57610459613543565b5b60405190808252806020026020018201604052801561049357816020015b610480613176565b8152602001906001900390816104785790505b509050600080600190505b60088160ff1611610583576000600190505b60088260ff161161056f57600960008360ff1660ff16815260200190815260200160002060008260ff1660ff1681526020019081526020016000206040518060400160405290816000820160009054906101000a900460ff1660ff1660ff1681526020016000820160019054906101000a900460ff1660ff1660ff168152505084848151811061054357610542613572565b5b60200260200101819052508280610559906135d0565b935050818061056790613619565b9250506104b0565b50808061057b90613619565b91505061049e565b50819250505090565b600a60039054906101000a900460ff1681565b600a60019054906101000a900460ff1681565b600460009054906101000a900473ffffffffffffffffffffffffffffffffffffffff1681565b600360009054906101000a900460ff1681565b600a60059054906101000a900460ff1681565b600360019054906101000a900473ffffffffffffffffffffffffffffffffffffffff1673ffffffffffffffffffffffffffffffffffffffff163373ffffffffffffffffffffffffffffffffffffffff1614806106a75750600460009054906101000a900473ffffffffffffffffffffffffffffffffffffffff1673ffffffffffffffffffffffffffffffffffffffff163373ffffffffffffffffffffffffffffffffffffffff16145b6106b057600080fd5b600060028111156106c4576106c36133e0565b5b6106cc61087d565b60028111156106de576106dd6133e0565b5b146106e857600080fd5b6000600360019054906101000a900473ffffffffffffffffffffffffffffffffffffffff1673ffffffffffffffffffffffffffffffffffffffff163373ffffffffffffffffffffffffffffffffffffffff16146107a357600460009054906101000a900473ffffffffffffffffffffffffffffffffffffffff1673ffffffffffffffffffffffffffffffffffffffff163373ffffffffffffffffffffffffffffffffffffffff161461079b57600061079e565b60025b6107a6565b60015b90506107b18161136d565b600560008154809291906107c4906135d0565b919050555060026005541415610800576001600a60006101000a81548160ff021916908360028111156107fa576107f96133e0565b5b02179055505b61082161012c426108119190613643565b600161133e90919063ffffffff16565b50565b60004261086e60016040518060200160405290816000820160009054906101000a900467ffffffffffffffff1667ffffffffffffffff1667ffffffffffffffff1681525050612714565b6108789190613699565b905090565b600060016002811115610893576108926133e0565b5b600a60009054906101000a900460ff1660028111156108b5576108b46133e0565b5b148015610905575061090460016040518060200160405290816000820160009054906101000a900467ffffffffffffffff1667ffffffffffffffff1667ffffffffffffffff1681525050612722565b5b156109135760029050610926565b600a60009054906101000a900460ff1690505b90565b600a60029054906101000a900460ff1681565b600a60049054906101000a900460ff1681565b600360019054906101000a900473ffffffffffffffffffffffffffffffffffffffff1673ffffffffffffffffffffffffffffffffffffffff163373ffffffffffffffffffffffffffffffffffffffff1614806109f85750600460009054906101000a900473ffffffffffffffffffffffffffffffffffffffff1673ffffffffffffffffffffffffffffffffffffffff163373ffffffffffffffffffffffffffffffffffffffff16145b610a0157600080fd5b60016002811115610a1557610a146133e0565b5b610a1d61087d565b6002811115610a2f57610a2e6133e0565b5b14610a3957600080fd5b600360019054906101000a900473ffffffffffffffffffffffffffffffffffffffff1673ffffffffffffffffffffffffffffffffffffffff163373ffffffffffffffffffffffffffffffffffffffff161415610aad57600360009054906101000a900460ff16610aa857600080fd5b610ac8565b600360009054906101000a900460ff1615610ac757600080fd5b5b610b0f60016040518060200160405290816000820160009054906101000a900467ffffffffffffffff1667ffffffffffffffff1667ffffffffffffffff1681525050612722565b15610b1957600080fd5b60008260000b141580610b30575060008160000b14155b610b3957600080fd5b60008460ff1610158015610b51575060088460ff1611155b8015610b61575060008360ff1610155b8015610b71575060088360ff1611155b610b7a57600080fd5b60008285610b8891906136cd565b60000b12158015610ba8575060088285610ba291906136cd565b60000b13155b8015610bc3575060008184610bbd91906136cd565b60000b12155b8015610bde575060088184610bd891906136cd565b60000b13155b610be757600080fd5b6000600360019054906101000a900473ffffffffffffffffffffffffffffffffffffffff1673ffffffffffffffffffffffffffffffffffffffff163373ffffffffffffffffffffffffffffffffffffffff1614610c45576002610c48565b60015b90506000600960008760ff1660ff16815260200190815260200160002060008660ff1660ff1681526020019081526020016000206040518060400160405290816000820160009054906101000a900460ff1660ff1660ff1681526020016000820160019054906101000a900460ff1660ff1660ff168152505090508160ff16816000015160ff1614610cd957600080fd5b600a60019054906101000a900460ff1660ff16816020015160ff161415610d1057610d0b81600001518787878761274e565b610df5565b600a60069054906101000a900460ff1660ff16816020015160ff161415610d4757610d42816000015187878787612aba565b610df4565b600a60049054906101000a900460ff1660ff16816020015160ff161415610d7e57610d79816000015187878787612bc3565b610df3565b600a60059054906101000a900460ff1660ff16816020015160ff161415610db557610db0816000015187878787612c50565b610df2565b600a60039054906101000a900460ff1660ff16816020015160ff161415610dec57610de7816000015187878787612cf9565b610df1565b600080fd5b5b5b5b5b600360009054906101000a900460ff1615600360006101000a81548160ff021916908315150217905550610e4061012c42610e309190613643565b600161133e90919063ffffffff16565b610e48612d55565b505050505050565b600a60069054906101000a900460ff1681565b600360019054906101000a900473ffffffffffffffffffffffffffffffffffffffff1673ffffffffffffffffffffffffffffffffffffffff163373ffffffffffffffffffffffffffffffffffffffff161480610f0c5750600460009054906101000a900473ffffffffffffffffffffffffffffffffffffffff1673ffffffffffffffffffffffffffffffffffffffff163373ffffffffffffffffffffffffffffffffffffffff16145b610f1557600080fd5b60006002811115610f2957610f286133e0565b5b610f3161087d565b6002811115610f4357610f426133e0565b5b14610f4d57600080fd5b600260003373ffffffffffffffffffffffffffffffffffffffff1673ffffffffffffffffffffffffffffffffffffffff16815260200190815260200160002060009054906101000a900460ff1615610fa457600080fd5b6006543414610fe8576040517f08c379a0000000000000000000000000000000000000000000000000000000008152600401610fdf9061379f565b60405180910390fd5b6001600260003373ffffffffffffffffffffffffffffffffffffffff1673ffffffffffffffffffffffffffffffffffffffff16815260200190815260200160002060006101000a81548160ff021916908315150217905550565b60055481565b600360019054906101000a900473ffffffffffffffffffffffffffffffffffffffff1681565b60075481565b600860009054906101000a900473ffffffffffffffffffffffffffffffffffffffff1681565b6110e160016040518060200160405290816000820160009054906101000a900467ffffffffffffffff1667ffffffffffffffff1667ffffffffffffffff1681525050612722565b6111c2576002808111156110f8576110f76133e0565b5b61110061087d565b6002811115611112576111116133e0565b5b1461111c57600080fd5b600860009054906101000a900473ffffffffffffffffffffffffffffffffffffffff1673ffffffffffffffffffffffffffffffffffffffff163373ffffffffffffffffffffffffffffffffffffffff161461117657600080fd5b3373ffffffffffffffffffffffffffffffffffffffff166108fc479081150290604051600060405180830381858888f193505050501580156111bc573d6000803e3d6000fd5b5061133c565b600360019054906101000a900473ffffffffffffffffffffffffffffffffffffffff1673ffffffffffffffffffffffffffffffffffffffff163373ffffffffffffffffffffffffffffffffffffffff16141561123757600360009054906101000a900460ff161561123257600080fd5b611251565b600360009054906101000a900460ff1661125057600080fd5b5b33600860006101000a81548173ffffffffffffffffffffffffffffffffffffffff021916908373ffffffffffffffffffffffffffffffffffffffff1602179055506002600a60006101000a81548160ff021916908360028111156112b8576112b76133e0565b5b02179055507f0352fd1ea2344e18cab7d3e3bd417f688cb2017011de4cbc8d83d486d7618103336040516112ec919061380b565b60405180910390a13373ffffffffffffffffffffffffffffffffffffffff166108fc479081150290604051600060405180830381858888f1935050505015801561133a573d6000803e3d6000fd5b505b565b808260000160006101000a81548167ffffffffffffffff021916908367ffffffffffffffff1602179055505050565b60018160ff161415611d3e576040518060400160405280600160ff168152602001600a60029054906101000a900460ff1660ff1681525060096000600160ff1681526020019081526020016000206000600160ff16815260200190815260200160002060008201518160000160006101000a81548160ff021916908360ff16021790555060208201518160000160016101000a81548160ff021916908360ff1602179055509050506040518060400160405280600160ff168152602001600a60069054906101000a900460ff1660ff1681525060096000600260ff1681526020019081526020016000206000600160ff16815260200190815260200160002060008201518160000160006101000a81548160ff021916908360ff16021790555060208201518160000160016101000a81548160ff021916908360ff1602179055509050506040518060400160405280600160ff168152602001600a60049054906101000a900460ff1660ff1681525060096000600360ff1681526020019081526020016000206000600160ff16815260200190815260200160002060008201518160000160006101000a81548160ff021916908360ff16021790555060208201518160000160016101000a81548160ff021916908360ff1602179055509050506040518060400160405280600160ff168152602001600a60059054906101000a900460ff1660ff1681525060096000600460ff1681526020019081526020016000206000600160ff16815260200190815260200160002060008201518160000160006101000a81548160ff021916908360ff16021790555060208201518160000160016101000a81548160ff021916908360ff1602179055509050506040518060400160405280600160ff168152602001600a60039054906101000a900460ff1660ff1681525060096000600560ff1681526020019081526020016000206000600160ff16815260200190815260200160002060008201518160000160006101000a81548160ff021916908360ff16021790555060208201518160000160016101000a81548160ff021916908360ff1602179055509050506040518060400160405280600160ff168152602001600a60049054906101000a900460ff1660ff1681525060096000600660ff1681526020019081526020016000206000600160ff16815260200190815260200160002060008201518160000160006101000a81548160ff021916908360ff16021790555060208201518160000160016101000a81548160ff021916908360ff1602179055509050506040518060400160405280600160ff168152602001600a60069054906101000a900460ff1660ff1681525060096000600760ff1681526020019081526020016000206000600160ff16815260200190815260200160002060008201518160000160006101000a81548160ff021916908360ff16021790555060208201518160000160016101000a81548160ff021916908360ff1602179055509050506040518060400160405280600160ff168152602001600a60029054906101000a900460ff1660ff1681525060096000600860ff1681526020019081526020016000206000600160ff16815260200190815260200160002060008201518160000160006101000a81548160ff021916908360ff16021790555060208201518160000160016101000a81548160ff021916908360ff1602179055509050506040518060400160405280600160ff168152602001600a60019054906101000a900460ff1660ff1681525060096000600160ff1681526020019081526020016000206000600260ff16815260200190815260200160002060008201518160000160006101000a81548160ff021916908360ff16021790555060208201518160000160016101000a81548160ff021916908360ff1602179055509050506040518060400160405280600160ff168152602001600a60019054906101000a900460ff1660ff1681525060096000600260ff1681526020019081526020016000206000600260ff16815260200190815260200160002060008201518160000160006101000a81548160ff021916908360ff16021790555060208201518160000160016101000a81548160ff021916908360ff1602179055509050506040518060400160405280600160ff168152602001600a60019054906101000a900460ff1660ff1681525060096000600360ff1681526020019081526020016000206000600260ff16815260200190815260200160002060008201518160000160006101000a81548160ff021916908360ff16021790555060208201518160000160016101000a81548160ff021916908360ff1602179055509050506040518060400160405280600160ff168152602001600a60019054906101000a900460ff1660ff1681525060096000600460ff1681526020019081526020016000206000600260ff16815260200190815260200160002060008201518160000160006101000a81548160ff021916908360ff16021790555060208201518160000160016101000a81548160ff021916908360ff1602179055509050506040518060400160405280600160ff168152602001600a60019054906101000a900460ff1660ff1681525060096000600560ff1681526020019081526020016000206000600260ff16815260200190815260200160002060008201518160000160006101000a81548160ff021916908360ff16021790555060208201518160000160016101000a81548160ff021916908360ff1602179055509050506040518060400160405280600160ff168152602001600a60019054906101000a900460ff1660ff1681525060096000600660ff1681526020019081526020016000206000600260ff16815260200190815260200160002060008201518160000160006101000a81548160ff021916908360ff16021790555060208201518160000160016101000a81548160ff021916908360ff1602179055509050506040518060400160405280600160ff168152602001600a60019054906101000a900460ff1660ff1681525060096000600760ff1681526020019081526020016000206000600260ff16815260200190815260200160002060008201518160000160006101000a81548160ff021916908360ff16021790555060208201518160000160016101000a81548160ff021916908360ff1602179055509050506040518060400160405280600160ff168152602001600a60019054906101000a900460ff1660ff1681525060096000600860ff1681526020019081526020016000206000600260ff16815260200190815260200160002060008201518160000160006101000a81548160ff021916908360ff16021790555060208201518160000160016101000a81548160ff021916908360ff160217905550905050612711565b60028160ff16141561270f576040518060400160405280600260ff168152602001600a60029054906101000a900460ff1660ff1681525060096000600160ff1681526020019081526020016000206000600860ff16815260200190815260200160002060008201518160000160006101000a81548160ff021916908360ff16021790555060208201518160000160016101000a81548160ff021916908360ff1602179055509050506040518060400160405280600260ff168152602001600a60069054906101000a900460ff1660ff1681525060096000600260ff1681526020019081526020016000206000600860ff16815260200190815260200160002060008201518160000160006101000a81548160ff021916908360ff16021790555060208201518160000160016101000a81548160ff021916908360ff1602179055509050506040518060400160405280600260ff168152602001600a60049054906101000a900460ff1660ff1681525060096000600360ff1681526020019081526020016000206000600860ff16815260200190815260200160002060008201518160000160006101000a81548160ff021916908360ff16021790555060208201518160000160016101000a81548160ff021916908360ff1602179055509050506040518060400160405280600260ff168152602001600a60039054906101000a900460ff1660ff1681525060096000600460ff1681526020019081526020016000206000600860ff16815260200190815260200160002060008201518160000160006101000a81548160ff021916908360ff16021790555060208201518160000160016101000a81548160ff021916908360ff1602179055509050506040518060400160405280600260ff168152602001600a60059054906101000a900460ff1660ff1681525060096000600560ff1681526020019081526020016000206000600860ff16815260200190815260200160002060008201518160000160006101000a81548160ff021916908360ff16021790555060208201518160000160016101000a81548160ff021916908360ff1602179055509050506040518060400160405280600260ff168152602001600a60049054906101000a900460ff1660ff1681525060096000600660ff1681526020019081526020016000206000600860ff16815260200190815260200160002060008201518160000160006101000a81548160ff021916908360ff16021790555060208201518160000160016101000a81548160ff021916908360ff1602179055509050506040518060400160405280600260ff168152602001600a60069054906101000a900460ff1660ff1681525060096000600760ff1681526020019081526020016000206000600860ff16815260200190815260200160002060008201518160000160006101000a81548160ff021916908360ff16021790555060208201518160000160016101000a81548160ff021916908360ff1602179055509050506040518060400160405280600260ff168152602001600a60029054906101000a900460ff1660ff1681525060096000600860ff1681526020019081526020016000206000600860ff16815260200190815260200160002060008201518160000160006101000a81548160ff021916908360ff16021790555060208201518160000160016101000a81548160ff021916908360ff1602179055509050506040518060400160405280600260ff168152602001600a60019054906101000a900460ff1660ff1681525060096000600160ff1681526020019081526020016000206000600760ff16815260200190815260200160002060008201518160000160006101000a81548160ff021916908360ff16021790555060208201518160000160016101000a81548160ff021916908360ff1602179055509050506040518060400160405280600260ff168152602001600a60019054906101000a900460ff1660ff1681525060096000600260ff1681526020019081526020016000206000600760ff16815260200190815260200160002060008201518160000160006101000a81548160ff021916908360ff16021790555060208201518160000160016101000a81548160ff021916908360ff1602179055509050506040518060400160405280600260ff168152602001600a60019054906101000a900460ff1660ff1681525060096000600360ff1681526020019081526020016000206000600760ff16815260200190815260200160002060008201518160000160006101000a81548160ff021916908360ff16021790555060208201518160000160016101000a81548160ff021916908360ff1602179055509050506040518060400160405280600260ff168152602001600a60019054906101000a900460ff1660ff1681525060096000600360ff1681526020019081526020016000206000600760ff16815260200190815260200160002060008201518160000160006101000a81548160ff021916908360ff16021790555060208201518160000160016101000a81548160ff021916908360ff1602179055509050506040518060400160405280600260ff168152602001600a60019054906101000a900460ff1660ff1681525060096000600560ff1681526020019081526020016000206000600760ff16815260200190815260200160002060008201518160000160006101000a81548160ff021916908360ff16021790555060208201518160000160016101000a81548160ff021916908360ff1602179055509050506040518060400160405280600260ff168152602001600a60019054906101000a900460ff1660ff1681525060096000600660ff1681526020019081526020016000206000600760ff16815260200190815260200160002060008201518160000160006101000a81548160ff021916908360ff16021790555060208201518160000160016101000a81548160ff021916908360ff1602179055509050506040518060400160405280600260ff168152602001600a60019054906101000a900460ff1660ff1681525060096000600760ff1681526020019081526020016000206000600760ff16815260200190815260200160002060008201518160000160006101000a81548160ff021916908360ff16021790555060208201518160000160016101000a81548160ff021916908360ff1602179055509050506040518060400160405280600260ff168152602001600a60019054906101000a900460ff1660ff1681525060096000600860ff1681526020019081526020016000206000600760ff16815260200190815260200160002060008201518160000160006101000a81548160ff021916908360ff16021790555060208201518160000160016101000a81548160ff021916908360ff160217905550905050612710565b5b5b50565b600081600001519050919050565b600061272d82612f4e565b8015612747575042826000015167ffffffffffffffff1611155b9050919050565b60008060018760ff1614156128eb576002600960006001896127709190613839565b60ff1660ff16815260200190815260200160002060006001886127939190613839565b60ff1660ff16815260200190815260200160002060000160009054906101000a900460ff1660ff161491506002600960006001896127d19190613870565b60ff1660ff16815260200190815260200160002060006001886127f49190613839565b60ff1660ff16815260200190815260200160002060000160009054906101000a900460ff1660ff1614915060018360000b1461282f57600080fd5b60018460000b1415612846578061284557600080fd5b5b7fffffffffffffffffffffffffffffffffffffffffffffffffffffffffffffffff8460000b141561287c578161287b57600080fd5b5b60008460000b14156128e6576000600960008860ff1660ff16815260200190815260200160002060006001886128b29190613839565b60ff1660ff16815260200190815260200160002060000160009054906101000a900460ff1660ff1614156128e557600080fd5b5b612a94565b6001600960006001896128fe9190613839565b60ff1660ff16815260200190815260200160002060006001886129219190613870565b60ff1660ff16815260200190815260200160002060000160009054906101000a900460ff1660ff1614915060016009600060018961295f9190613870565b60ff1660ff16815260200190815260200160002060006001886129829190613870565b60ff1660ff16815260200190815260200160002060000160009054906101000a900460ff1660ff161491507fffffffffffffffffffffffffffffffffffffffffffffffffffffffffffffffff8360000b146129dc57600080fd5b60018460000b14156129f357806129f257600080fd5b5b7fffffffffffffffffffffffffffffffffffffffffffffffffffffffffffffffff8460000b1415612a295781612a2857600080fd5b5b60008460000b1415612a93576000600960008860ff1660ff1681526020019081526020016000206000600188612a5f9190613839565b60ff1660ff16815260200190815260200160002060000160009054906101000a900460ff1660ff161415612a9257600080fd5b5b5b612ab18787878787600a60019054906101000a900460ff16612f68565b50505050505050565b6000808360000b12612acc5782612ad7565b82612ad6906138a4565b5b90506000808360000b12612aeb5782612af6565b82612af5906138a4565b5b905060018260ff16148015612b0e575060028160ff16145b80612b2b575060028260ff16148015612b2a575060018160ff16145b5b612b3457600080fd5b8660ff16600960008689612b4891906136cd565b60ff1660ff16815260200190815260200160002060008588612b6a91906136cd565b60ff1660ff16815260200190815260200160002060000160009054906101000a900460ff1660ff161415612b9d57600080fd5b612bba8787878787600a60069054906101000a900460ff16612f68565b50505050505050565b6000808360000b12612bd55782612be0565b82612bdf906138a4565b5b90506000808360000b12612bf45782612bff565b82612bfe906138a4565b5b90508060ff168260ff1614612c1357600080fd5b612c2087878787876130a8565b15612c2a57600080fd5b612c478787878787600a60049054906101000a900460ff16612f68565b50505050505050565b6000808360000b12612c625782612c6d565b82612c6c906138a4565b5b90506000808360000b12612c815782612c8c565b82612c8b906138a4565b5b90508060ff168260ff161480612cb3575060008460000b1480612cb2575060008360000b145b5b612cbc57600080fd5b612cc987878787876130a8565b15612cd357600080fd5b612cf08787878787600a60059054906101000a900460ff16612f68565b50505050505050565b60018260000b13158015612d11575060018160000b13155b612d1a57600080fd5b612d2785858585856130a8565b15612d3157600080fd5b612d4e8585858585600a60039054906101000a900460ff16612f68565b5050505050565b60008060005b612d6361043b565b51811015612de5576000612d7561043b565b8281518110612d8757612d86613572565b5b60200260200101519050600a60039054906101000a900460ff1660ff16816020015160ff161415612dd1576001816000015160ff161415612dcb5760019350612dd0565b600192505b5b508080612ddd906135d0565b915050612d5b565b5081612e7e57600360019054906101000a900473ffffffffffffffffffffffffffffffffffffffff16600860006101000a81548173ffffffffffffffffffffffffffffffffffffffff021916908373ffffffffffffffffffffffffffffffffffffffff1602179055506002600a60006101000a81548160ff02191690836002811115612e7457612e736133e0565b5b0217905550612f13565b80612f1257600460009054906101000a900473ffffffffffffffffffffffffffffffffffffffff16600860006101000a81548173ffffffffffffffffffffffffffffffffffffffff021916908373ffffffffffffffffffffffffffffffffffffffff1602179055506002600a60006101000a81548160ff02191690836002811115612f0c57612f0b6133e0565b5b02179055505b5b7f0352fd1ea2344e18cab7d3e3bd417f688cb2017011de4cbc8d83d486d761810333604051612f429190613939565b60405180910390a15050565b600080826000015167ffffffffffffffff16119050919050565b600960008660ff1660ff16815260200190815260200160002060008560ff1660ff168152602001908152602001600020600080820160006101000a81549060ff02191690556000820160016101000a81549060ff0219169055505060405180604001604052808760ff1681526020018260ff16815250600960008588612fee91906136cd565b60ff1660ff1681526020019081526020016000206000848761301091906136cd565b60ff1660ff16815260200190815260200160002060008201518160000160006101000a81548160ff021916908360ff16021790555060208201518160000160016101000a81548160ff021916908360ff1602179055509050507f09df06be97ea62382d047c12b01bfbbf5b653587ba0b2a73ca32f356a4cb603c336040516130989190613351565b60405180910390a1505050505050565b600080600190505b8360ff168160ff1611613167576000600190505b8360ff168160ff1611613153578760ff1660096000848a6130e59190613839565b60ff1660ff168152602001908152602001600020600083896131079190613839565b60ff1660ff16815260200190815260200160002060000160009054906101000a900460ff1660ff1614156131405760019250505061316d565b808061314b90613619565b9150506130c4565b50808061315f90613619565b9150506130b0565b50600090505b95945050505050565b6040518060400160405280600060ff168152602001600060ff1681525090565b6000819050919050565b6131a981613196565b82525050565b60006020820190506131c460008301846131a0565b92915050565b600081519050919050565b600082825260208201905092915050565b6000819050602082019050919050565b600060ff82169050919050565b61320c816131f6565b82525050565b6040820160008201516132286000850182613203565b50602082015161323b6020850182613203565b50505050565b600061324d8383613212565b60408301905092915050565b6000602082019050919050565b6000613271826131ca565b61327b81856131d5565b9350613286836131e6565b8060005b838110156132b757815161329e8882613241565b97506132a983613259565b92505060018101905061328a565b5085935050505092915050565b600060208201905081810360008301526132de8184613266565b905092915050565b6132ef816131f6565b82525050565b600060208201905061330a60008301846132e6565b92915050565b600073ffffffffffffffffffffffffffffffffffffffff82169050919050565b600061333b82613310565b9050919050565b61334b81613330565b82525050565b60006020820190506133666000830184613342565b92915050565b60008115159050919050565b6133818161336c565b82525050565b600060208201905061339c6000830184613378565b92915050565b600067ffffffffffffffff82169050919050565b6133bf816133a2565b82525050565b60006020820190506133da60008301846133b6565b92915050565b7f4e487b7100000000000000000000000000000000000000000000000000000000600052602160045260246000fd5b600381106134205761341f6133e0565b5b50565b60008190506134318261340f565b919050565b600061344182613423565b9050919050565b61345181613436565b82525050565b600060208201905061346c6000830184613448565b92915050565b600080fd5b613480816131f6565b811461348b57600080fd5b50565b60008135905061349d81613477565b92915050565b60008160000b9050919050565b6134b9816134a3565b81146134c457600080fd5b50565b6000813590506134d6816134b0565b92915050565b600080600080608085870312156134f6576134f5613472565b5b60006135048782880161348e565b94505060206135158782880161348e565b9350506040613526878288016134c7565b9250506060613537878288016134c7565b91505092959194509250565b7f4e487b7100000000000000000000000000000000000000000000000000000000600052604160045260246000fd5b7f4e487b7100000000000000000000000000000000000000000000000000000000600052603260045260246000fd5b7f4e487b7100000000000000000000000000000000000000000000000000000000600052601160045260246000fd5b60006135db82613196565b91507fffffffffffffffffffffffffffffffffffffffffffffffffffffffffffffffff82141561360e5761360d6135a1565b5b600182019050919050565b6000613624826131f6565b915060ff821415613638576136376135a1565b5b600182019050919050565b600061364e82613196565b915061365983613196565b9250827fffffffffffffffffffffffffffffffffffffffffffffffffffffffffffffffff0382111561368e5761368d6135a1565b5b828201905092915050565b60006136a4826133a2565b91506136af836133a2565b9250828210156136c2576136c16135a1565b5b828203905092915050565b60006136d8826134a3565b91506136e3836134a3565b925081607f038313600083121516156136ff576136fe6135a1565b5b817fffffffffffffffffffffffffffffffffffffffffffffffffffffffffffffff80038312600083121615613737576137366135a1565b5b828201905092915050565b600082825260208201905092915050565b7f496e636f727265637420616d6f756e7400000000000000000000000000000000600082015250565b6000613789601083613742565b915061379482613753565b602082019050919050565b600060208201905081810360008301526137b88161377c565b9050919050565b7f506c61796572206162616e646f6e656400000000000000000000000000000000600082015250565b60006137f5601083613742565b9150613800826137bf565b602082019050919050565b60006040820190506138206000830184613342565b8181036020830152613831816137e8565b905092915050565b6000613844826131f6565b915061384f836131f6565b92508260ff03821115613865576138646135a1565b5b828201905092915050565b600061387b826131f6565b9150613886836131f6565b925082821015613899576138986135a1565b5b828203905092915050565b60006138af826134a3565b91507fffffffffffffffffffffffffffffffffffffffffffffffffffffffffffffff808214156138e2576138e16135a1565b5b816000039050919050565b7f4f70706f6e656e742062656174656e0000000000000000000000000000000000600082015250565b6000613923600f83613742565b915061392e826138ed565b602082019050919050565b600060408201905061394e6000830184613342565b818103602083015261395f81613916565b90509291505056fea26469706673582212202e73a62b4e33f1f78af21dde169339e7b49fb73f50e9be2434c56f6bc1b4e09c64736f6c634300080a0033a2646970667358221220c432683fab00f63975bbaa1ba7c22c162b55efed43628882c9595aac4b440d4a64736f6c634300080a0033",
  "immutableReferences": {},
  "source": "pragma solidity ^0.8.0;\r\nimport \"./Game.sol\";\r\nimport \"./Bytes32.sol\";\r\nimport \"../node_modules/@openzeppelin/contracts/utils/Counters.sol\";\r\n\r\ncontract ChessGameCreator is Bytes32{\r\n    using Counters for Counters.Counter;\r\n    mapping (address => uint) private _gamesPlayed;\r\n    mapping (address => uint) private _experience;\r\n    mapping (address => uint) private_userLevel;\r\n    \r\n\r\n    Counters.Counter _idCount;\r\n    Chess private CONNECT;\r\n    struct Lobby {\r\n        bytes32 game_code;\r\n        uint gameId;\r\n        address gameAddress;\r\n        address creator;\r\n    }\r\n    Lobby [] _lobbies;\r\n\r\n    function createPrivateGame(string memory gameName , address player1 , address player2 , uint betAmount) public{\r\n        require(player1 != address (0) && player2 != address(0));\r\n        require(!_gameNameUsed(gameName) , \"That name is already taken\");\r\n        Chess newGame = new Chess(_idCount.current() , player1 , player2 , betAmount);\r\n        bytes32 gameCode = _stringToBytes32(gameName);\r\n        _lobbies.push(Lobby(\r\n            gameCode,\r\n            _idCount.current(),\r\n            address(newGame),\r\n            msg.sender\r\n        ));\r\n    }\r\n\r\n    function _gameNameUsed(string memory gameName) internal view returns (bool){\r\n        bytes32 gameCode = _stringToBytes32(gameName);\r\n        for(uint i=0 ; i<_lobbies.length ; i++){\r\n            if(_lobbies[i].game_code==gameCode){\r\n                return true;\r\n            }\r\n        }\r\n        return false;\r\n    }\r\n\r\n    function getGameCode(string memory gameName) public pure returns(bytes32){\r\n        bytes32 gameCode = _stringToBytes32(gameName);\r\n        return gameCode;\r\n    }\r\n    \r\n    function lobbies() public view returns(Lobby[] memory){\r\n        Lobby[] memory lobbies = new Lobby[](_lobbies.length);\r\n        lobbies = _lobbies;\r\n        return lobbies;\r\n    }\r\n\r\n\r\n    \r\n}",
  "sourcePath": "C:\\Users\\oteri\\Documents\\chess\\contracts\\Chess.sol",
  "compiler": {
    "name": "solc",
    "version": "0.8.10+commit.fc410830.Emscripten.clang"
  },
  "schemaVersion": "3.4.3",
  "updatedAt": "2022-08-12T18:51:06.860Z",
  "networkType": "ethereum",
  "devdoc": {
    "kind": "dev",
    "methods": {},
    "version": 1
  },
  "userdoc": {
    "kind": "user",
    "methods": {},
    "version": 1
  }
}